{
  "contractName": "coinCaller",
  "abi": [
    {
      "constant": false,
      "inputs": [
        {
          "name": "coinContractAddress",
          "type": "address"
        },
        {
          "name": "receiver",
          "type": "address"
        },
        {
          "name": "amount",
          "type": "uint256"
        }
      ],
      "name": "sendCoin",
      "outputs": [],
      "payable": false,
      "stateMutability": "nonpayable",
      "type": "function"
    }
  ],
  "bytecode": "0x608060405234801561001057600080fd5b506101c9806100206000396000f300608060405260043610610041576000357c0100000000000000000000000000000000000000000000000000000000900463ffffffff1680630b40bd8814610046575b600080fd5b34801561005257600080fd5b506100b1600480360381019080803573ffffffffffffffffffffffffffffffffffffffff169060200190929190803573ffffffffffffffffffffffffffffffffffffffff169060200190929190803590602001909291905050506100b3565b005b60008390508073ffffffffffffffffffffffffffffffffffffffff1663412664ae84846040518363ffffffff167c0100000000000000000000000000000000000000000000000000000000028152600401808373ffffffffffffffffffffffffffffffffffffffff1673ffffffffffffffffffffffffffffffffffffffff16815260200182815260200192505050602060405180830381600087803b15801561015b57600080fd5b505af115801561016f573d6000803e3d6000fd5b505050506040513d602081101561018557600080fd5b810190808051906020019092919050505050505050505600a165627a7a72305820f6da61c40a9cbfc29ef04f760c756f002ee501377c8fc47e7247b13d91b8aeed0029",
  "source": "pragma solidity ^0.4.23;\n\ncontract metaCoin {\n    mapping(address => uint) public balances;\n\n    constructor () public{\n        balances[msg.sender] = 10000;\n    }\n    function sendToken(address receiver, uint amount) public returns (bool successful)  {\n        if (balances[msg.sender] < amount) return false;\n        balances[msg.sender] -= amount;\n        balances[receiver] += amount;\n        return false;\n    }\n}\n\ncontract coinCaller {\n    function sendCoin(address coinContractAddress, address receiver, uint amount) public {\n        metaCoin m = metaCoin(coinContractAddress);\n        m.sendToken(receiver, amount);\n    }\n}",
  "sourcePath": "/home/arpit/ChainSkills/supplyChainEthereum/contracts/ex.sol",
  "compiler": {
    "name": "solc",
    "version": "0.4.24+commit.e67f0147.Emscripten.clang"
  },
  "schemaVersion": "2.0.1",
  "updatedAt": "2018-07-25T07:15:58.800Z"
}