{
  "contractName": "driver",
  "abi": [
    {
      "constant": false,
      "inputs": [
        {
          "name": "exporter",
          "type": "address"
        },
        {
          "name": "name",
          "type": "string"
        },
        {
          "name": "description",
          "type": "string"
        },
        {
          "name": "load_weight",
          "type": "uint256"
        },
        {
          "name": "load_value",
          "type": "uint256"
        }
      ],
      "name": "load",
      "outputs": [],
      "payable": false,
      "stateMutability": "nonpayable",
      "type": "function"
    },
    {
      "constant": false,
      "inputs": [
        {
          "name": "importer",
          "type": "address"
        },
        {
          "name": "shipment_id",
          "type": "uint256"
        },
        {
          "name": "unload_weight",
          "type": "uint256"
        },
        {
          "name": "load_date",
          "type": "uint256"
        }
      ],
      "name": "ShipmentDelivered",
      "outputs": [],
      "payable": true,
      "stateMutability": "payable",
      "type": "function"
    }
  ],
  "bytecode": "0x608060405234801561001057600080fd5b506103cd806100206000396000f30060806040526004361061004c576000357c0100000000000000000000000000000000000000000000000000000000900463ffffffff1680634344cf171461005157806386713fa7146100a5575b600080fd5b6100a3600480360381019080803573ffffffffffffffffffffffffffffffffffffffff169060200190929190803590602001909291908035906020019092919080359060200190929190505050610188565b005b3480156100b157600080fd5b50610186600480360381019080803573ffffffffffffffffffffffffffffffffffffffff169060200190929190803590602001908201803590602001908080601f0160208091040260200160405190810160405280939291908181526020018383808284378201915050505050509192919290803590602001908201803590602001908080601f0160208091040260200160405190810160405280939291908181526020018383808284378201915050505050509192919290803590602001909291908035906020019092919050505061022b565b005b60008490508073ffffffffffffffffffffffffffffffffffffffff16631868f8798585856040518463ffffffff167c0100000000000000000000000000000000000000000000000000000000028152600401808481526020018381526020018281526020019350505050600060405180830381600087803b15801561020c57600080fd5b505af1158015610220573d6000803e3d6000fd5b505050505050505050565b60008590508073ffffffffffffffffffffffffffffffffffffffff166334114d86868686866040518563ffffffff167c0100000000000000000000000000000000000000000000000000000000028152600401808060200180602001858152602001848152602001838103835287818151815260200191508051906020019080838360005b838110156102cb5780820151818401526020810190506102b0565b50505050905090810190601f1680156102f85780820380516001836020036101000a031916815260200191505b50838103825286818151815260200191508051906020019080838360005b83811015610331578082015181840152602081019050610316565b50505050905090810190601f16801561035e5780820380516001836020036101000a031916815260200191505b509650505050505050600060405180830381600087803b15801561038157600080fd5b505af1158015610395573d6000803e3d6000fd5b505050505050505050505600a165627a7a72305820bed7e8211a35eccd003f814ba2c688ada782c838902afe5f75d528251b83f4430029",
  "source": "pragma solidity ^0.4.18;\n\nimport \"./Shipper_Exporter.sol\";\nimport \"./Shipper_Importer.sol\";\n\ncontract driver {\n\n    function load(\n        address exporter,\n        string name,\n        string description,\n        uint load_weight,\n        uint load_value\n    ) public {\n        Shipper_Exporter shipE = Shipper_Exporter(exporter);\n        shipE.loadShipment(\n         name,\n         description,\n        load_weight,\n        load_value\n        );\n    }\n\n    function ShipmentDelivered(\n        address importer,\n        uint shipment_id,\n        uint unload_weight,\n        uint load_date\n    ) public payable{\n        Shipper_Importer shipI = Shipper_Importer(importer);\n        shipI.ShipmentDelivered(\n        shipment_id,\n        unload_weight,\n        load_date\n        );\n    }\n}\n\n",
  "sourcePath": "/home/arpit/ChainSkills/supplyChainEthereum/contracts/Driver.sol",
  "compiler": {
    "name": "solc",
    "version": "0.4.24+commit.e67f0147.Emscripten.clang"
  },
  "schemaVersion": "2.0.1",
  "updatedAt": "2018-07-25T05:56:03.802Z"
}