{
  "contractName": "metaCoin",
  "abi": [
    {
      "constant": true,
      "inputs": [
        {
          "name": "",
          "type": "address"
        }
      ],
      "name": "balances",
      "outputs": [
        {
          "name": "",
          "type": "uint256"
        }
      ],
      "payable": false,
      "stateMutability": "view",
      "type": "function"
    },
    {
      "inputs": [],
      "payable": false,
      "stateMutability": "nonpayable",
      "type": "constructor"
    },
    {
      "constant": false,
      "inputs": [
        {
          "name": "receiver",
          "type": "address"
        },
        {
          "name": "amount",
          "type": "uint256"
        }
      ],
      "name": "sendToken",
      "outputs": [
        {
          "name": "successful",
          "type": "bool"
        }
      ],
      "payable": false,
      "stateMutability": "nonpayable",
      "type": "function"
    }
  ],
  "bytecode": "0x608060405234801561001057600080fd5b506127106000803373ffffffffffffffffffffffffffffffffffffffff1673ffffffffffffffffffffffffffffffffffffffff16815260200190815260200160002081905550610245806100656000396000f30060806040526004361061004c576000357c0100000000000000000000000000000000000000000000000000000000900463ffffffff16806327e235e314610051578063412664ae146100a8575b600080fd5b34801561005d57600080fd5b50610092600480360381019080803573ffffffffffffffffffffffffffffffffffffffff16906020019092919050505061010d565b6040518082815260200191505060405180910390f35b3480156100b457600080fd5b506100f3600480360381019080803573ffffffffffffffffffffffffffffffffffffffff16906020019092919080359060200190929190505050610125565b604051808215151515815260200191505060405180910390f35b60006020528060005260406000206000915090505481565b6000816000803373ffffffffffffffffffffffffffffffffffffffff1673ffffffffffffffffffffffffffffffffffffffff1681526020019081526020016000205410156101765760009050610213565b816000803373ffffffffffffffffffffffffffffffffffffffff1673ffffffffffffffffffffffffffffffffffffffff16815260200190815260200160002060008282540392505081905550816000808573ffffffffffffffffffffffffffffffffffffffff1673ffffffffffffffffffffffffffffffffffffffff16815260200190815260200160002060008282540192505081905550600090505b929150505600a165627a7a72305820303563683bd70dd5da41127c1fc5a90605f5ed91498f4996fe880dd33d700edf0029",
  "source": "pragma solidity ^0.4.23;\n\ncontract metaCoin {\n    mapping(address => uint) public balances;\n\n    constructor () public{\n        balances[msg.sender] = 10000;\n    }\n    function sendToken(address receiver, uint amount) public returns (bool successful)  {\n        if (balances[msg.sender] < amount) return false;\n        balances[msg.sender] -= amount;\n        balances[receiver] += amount;\n        return false;\n    }\n}\n\ncontract coinCaller {\n    function sendCoin(address coinContractAddress, address receiver, uint amount) public {\n        metaCoin m = metaCoin(coinContractAddress);\n        m.sendToken(receiver, amount);\n    }\n}",
  "sourcePath": "/home/arpit/ChainSkills/supplyChainEthereum/contracts/ex.sol",
  "compiler": {
    "name": "solc",
    "version": "0.4.24+commit.e67f0147.Emscripten.clang"
  },
  "schemaVersion": "2.0.1",
  "updatedAt": "2018-07-25T10:05:34.572Z"
}