{
  "contractName": "Shipper_Importer",
  "abi": [
    {
      "constant": true,
      "inputs": [
        {
          "name": "",
          "type": "uint256"
        }
      ],
      "name": "shipments",
      "outputs": [
        {
          "name": "shipment_id",
          "type": "uint256"
        },
        {
          "name": "importer",
          "type": "address"
        },
        {
          "name": "shipper",
          "type": "address"
        },
        {
          "name": "name",
          "type": "string"
        },
        {
          "name": "description",
          "type": "string"
        },
        {
          "name": "unload_weight",
          "type": "uint256"
        },
        {
          "name": "load_value",
          "type": "uint256"
        },
        {
          "name": "transport_charges",
          "type": "uint256"
        },
        {
          "name": "miscellaneous_charges",
          "type": "uint256"
        }
      ],
      "payable": false,
      "stateMutability": "view",
      "type": "function"
    },
    {
      "anonymous": false,
      "inputs": [
        {
          "indexed": true,
          "name": "shipment_id",
          "type": "uint256"
        },
        {
          "indexed": true,
          "name": "importer",
          "type": "address"
        },
        {
          "indexed": true,
          "name": "shipper",
          "type": "address"
        },
        {
          "indexed": false,
          "name": "payment",
          "type": "uint256"
        }
      ],
      "name": "unloadLogShipment",
      "type": "event"
    },
    {
      "constant": false,
      "inputs": [
        {
          "name": "shipment_id",
          "type": "uint256"
        },
        {
          "name": "unload_weight",
          "type": "uint256"
        },
        {
          "name": "load_date",
          "type": "uint256"
        }
      ],
      "name": "ShipmentDelivered",
      "outputs": [],
      "payable": true,
      "stateMutability": "payable",
      "type": "function"
    }
  ],
  "bytecode": "0x608060405234801561001057600080fd5b50610570806100206000396000f30060806040526004361061004c576000357c0100000000000000000000000000000000000000000000000000000000900463ffffffff1680631868f879146100515780632ac08a9314610085575b600080fd5b610083600480360381019080803590602001909291908035906020019092919080359060200190929190505050610220565b005b34801561009157600080fd5b506100b06004803603810190808035906020019092919050505061035f565b604051808a81526020018973ffffffffffffffffffffffffffffffffffffffff1673ffffffffffffffffffffffffffffffffffffffff1681526020018873ffffffffffffffffffffffffffffffffffffffff1673ffffffffffffffffffffffffffffffffffffffff1681526020018060200180602001878152602001868152602001858152602001848152602001838103835289818151815260200191508051906020019080838360005b8381101561017657808201518184015260208101905061015b565b50505050905090810190601f1680156101a35780820380516001836020036101000a031916815260200191505b50838103825288818151815260200191508051906020019080838360005b838110156101dc5780820151818401526020810190506101c1565b50505050905090810190601f1680156102095780820380516001836020036101000a031916815260200191505b509b50505050505050505050505060405180910390f35b60008060008060004293506018603c8088870381151561023c57fe5b0481151561024657fe5b0481151561025057fe5b0492506018601e840302915060649050601e831115801561027057508487145b1561028057600081019050610304565b601e6001541115801561029257508487105b156102aa576102a1858861051d565b81019050610303565b601e6001541180156102bb57508487145b156102d2576102c982610532565b81019050610302565b601e6001541180156102e357508487105b15610301576102f2858861051d565b6102fb83610532565b01810190505b5b5b5b60003373ffffffffffffffffffffffffffffffffffffffff16897f02df45f300daf2dc56983bf49d61e6838cd807820d0608c81c023a035b1a5fb7846040518082815260200191505060405180910390a45050505050505050565b60006020528060005260406000206000915090508060000154908060010160009054906101000a900473ffffffffffffffffffffffffffffffffffffffff16908060020160009054906101000a900473ffffffffffffffffffffffffffffffffffffffff1690806003018054600181600116156101000203166002900480601f01602080910402602001604051908101604052809291908181526020018280546001816001161561010002031660029004801561045d5780601f106104325761010080835404028352916020019161045d565b820191906000526020600020905b81548152906001019060200180831161044057829003601f168201915b505050505090806004018054600181600116156101000203166002900480601f0160208091040260200160405190810160405280929190818152602001828054600181600116156101000203166002900480156104fb5780601f106104d0576101008083540402835291602001916104fb565b820191906000526020600020905b8154815290600101906020018083116104de57829003601f168201915b5050505050908060050154908060060154908060070154908060080154905089565b60008060058385030290508091505092915050565b600080600283029050809150509190505600a165627a7a723058204d5ddf7523ce15a7f712cdc4b213640d43c1d3b18de937a85e4c281921d6ea4d0029",
  "source": "pragma solidity ^0.4.18;\n\ncontract Shipper_Importer {\n    struct Shipment {\n        uint shipment_id;\n        address importer;\n        address shipper;\n        string name;\n        string description;\n        uint unload_weight;\n        uint load_value;\n        uint transport_charges; //depend on unload_weight  \n        uint miscellaneous_charges;\n    }\n\n    uint constant transport_charges = 100;\n\n    mapping(uint => Shipment) public shipments;\n    uint shipment_counter;\n\n    event unloadLogShipment(\n        uint indexed shipment_id,\n        address indexed importer,\n        address indexed shipper,\n        uint payment\n    );\n\n    function shipmentDamages(\n        uint load_weight,\n        uint unload_weight\n    ) private returns (uint){\n        //damages of 2$ per gallon shipper must pay in case of damages\n        uint damages_price = (load_weight - unload_weight) * 5;\n        return damages_price;\n    }\n\n    function demurrageClaim(\n        uint time_hours\n    ) private returns (\n        uint\n    ){\n        uint demurrage_cost = time_hours * 2;\n        //0.2 ether\n        return demurrage_cost;\n    }\n\n    function ShipmentDelivered(\n        uint shipment_id,\n        uint unload_weight,\n        uint load_date\n    ) public payable {\n        uint load_weight;\n        //pulled through web3\n        uint unload_date = block.timestamp;\n        uint time_days = (unload_date - load_date) / 60 / 60 / 24;\n        //  emit unloadLogShipment//  emit unloadLogShipment(\n        uint time_exceeded_hours = (time_days - 30) * 24;\n        uint payment = transport_charges;\n        //if load delivered within 30 days of signing receipt full payment to be made provided no damages.\n        if (time_days <= 30 && unload_weight == load_weight) {\n            payment += 0;\n        }\n        //else if within 30 days but some damages then percentage adjusted according to damages\n        else if (shipment_counter <= 30 && unload_weight < load_weight) {\n            payment += shipmentDamages(load_weight, unload_weight);\n        }\n        //else if  30 days exceeded exporter must pay demurrage according to mutually agreed percentage\n        else if (shipment_counter > 30 && unload_weight == load_weight) {\n            payment += demurrageClaim(time_exceeded_hours);\n        }\n        //else if 30 days limit exceeded and also other damages then further damages + demurrage applicable\n        else if (shipment_counter > 30 && unload_weight < load_weight) {\n            payment += demurrageClaim(time_exceeded_hours) + shipmentDamages(load_weight, unload_weight);\n        }\n\n        emit unloadLogShipment(\n            shipment_id,\n            msg.sender,\n            0x0,\n            payment\n        );\n    }\n}",
  "sourcePath": "/home/arpit/ChainSkills/supplyChainEthereum/contracts/Shipper_Importer.sol",
  "compiler": {
    "name": "solc",
    "version": "0.4.24+commit.e67f0147.Emscripten.clang"
  },
  "schemaVersion": "2.0.1",
  "updatedAt": "2018-07-25T07:15:59.666Z"
}