{
  "contractName": "Shipper_Importer",
  "abi": [
    {
      "constant": true,
      "inputs": [
        {
          "name": "",
          "type": "uint256"
        }
      ],
      "name": "shipments",
      "outputs": [
        {
          "name": "shipment_id",
          "type": "uint256"
        },
        {
          "name": "exporter_id",
          "type": "address"
        },
        {
          "name": "shipper_id",
          "type": "address"
        },
        {
          "name": "name",
          "type": "string"
        },
        {
          "name": "description",
          "type": "string"
        },
        {
          "name": "load_weight",
          "type": "uint256"
        },
        {
          "name": "load_value",
          "type": "uint256"
        },
        {
          "name": "transport_charges",
          "type": "uint256"
        }
      ],
      "payable": false,
      "stateMutability": "view",
      "type": "function"
    },
    {
      "anonymous": false,
      "inputs": [
        {
          "indexed": true,
          "name": "shipment_id",
          "type": "uint256"
        },
        {
          "indexed": true,
          "name": "exporter_id",
          "type": "address"
        },
        {
          "indexed": true,
          "name": "shipper_id",
          "type": "address"
        },
        {
          "indexed": false,
          "name": "name",
          "type": "string"
        },
        {
          "indexed": false,
          "name": "description",
          "type": "string"
        },
        {
          "indexed": false,
          "name": "load_weight",
          "type": "uint256"
        },
        {
          "indexed": false,
          "name": "load_value",
          "type": "uint256"
        },
        {
          "indexed": false,
          "name": "transport_charges",
          "type": "uint256"
        }
      ],
      "name": "LogShipment",
      "type": "event"
    },
    {
      "constant": false,
      "inputs": [
        {
          "name": "_name",
          "type": "string"
        },
        {
          "name": "_description",
          "type": "string"
        },
        {
          "name": "_load_weight",
          "type": "uint256"
        },
        {
          "name": "_load_value",
          "type": "uint256"
        },
        {
          "name": "_transport_charges",
          "type": "uint256"
        }
      ],
      "name": "loadShipment",
      "outputs": [],
      "payable": false,
      "stateMutability": "nonpayable",
      "type": "function"
    },
    {
      "constant": true,
      "inputs": [],
      "name": "getNumberOfShipments",
      "outputs": [
        {
          "name": "",
          "type": "uint256"
        }
      ],
      "payable": false,
      "stateMutability": "view",
      "type": "function"
    }
  ],
  "bytecode": "0x608060405234801561001057600080fd5b50610842806100206000396000f300608060405260043610610057576000357c0100000000000000000000000000000000000000000000000000000000900463ffffffff1680632ac08a931461005c57806389adad39146101f0578063d222016f146102bd575b600080fd5b34801561006857600080fd5b50610087600480360381019080803590602001909291905050506102e8565b604051808981526020018873ffffffffffffffffffffffffffffffffffffffff1673ffffffffffffffffffffffffffffffffffffffff1681526020018773ffffffffffffffffffffffffffffffffffffffff1673ffffffffffffffffffffffffffffffffffffffff1681526020018060200180602001868152602001858152602001848152602001838103835288818151815260200191508051906020019080838360005b8381101561014757808201518184015260208101905061012c565b50505050905090810190601f1680156101745780820380516001836020036101000a031916815260200191505b50838103825287818151815260200191508051906020019080838360005b838110156101ad578082015181840152602081019050610192565b50505050905090810190601f1680156101da5780820380516001836020036101000a031916815260200191505b509a505050505050505050505060405180910390f35b3480156101fc57600080fd5b506102bb600480360381019080803590602001908201803590602001908080601f0160208091040260200160405190810160405280939291908181526020018383808284378201915050505050509192919290803590602001908201803590602001908080601f01602080910402602001604051908101604052809392919081815260200183838082843782019150505050505091929192908035906020019092919080359060200190929190803590602001909291905050506104a0565b005b3480156102c957600080fd5b506102d2610767565b6040518082815260200191505060405180910390f35b60006020528060005260406000206000915090508060000154908060010160009054906101000a900473ffffffffffffffffffffffffffffffffffffffff16908060020160009054906101000a900473ffffffffffffffffffffffffffffffffffffffff1690806003018054600181600116156101000203166002900480601f0160208091040260200160405190810160405280929190818152602001828054600181600116156101000203166002900480156103e65780601f106103bb576101008083540402835291602001916103e6565b820191906000526020600020905b8154815290600101906020018083116103c957829003601f168201915b505050505090806004018054600181600116156101000203166002900480601f0160208091040260200160405190810160405280929190818152602001828054600181600116156101000203166002900480156104845780601f1061045957610100808354040283529160200191610484565b820191906000526020600020905b81548152906001019060200180831161046757829003601f168201915b5050505050908060050154908060060154908060070154905088565b6001600081548092919060010191905055506101006040519081016040528060015481526020013373ffffffffffffffffffffffffffffffffffffffff168152602001600073ffffffffffffffffffffffffffffffffffffffff1681526020018681526020018581526020018481526020018381526020018281525060008060015481526020019081526020016000206000820151816000015560208201518160010160006101000a81548173ffffffffffffffffffffffffffffffffffffffff021916908373ffffffffffffffffffffffffffffffffffffffff16021790555060408201518160020160006101000a81548173ffffffffffffffffffffffffffffffffffffffff021916908373ffffffffffffffffffffffffffffffffffffffff16021790555060608201518160030190805190602001906105e4929190610771565b506080820151816004019080519060200190610601929190610771565b5060a0820151816005015560c0820151816006015560e0820151816007015590505060003373ffffffffffffffffffffffffffffffffffffffff166001547fa1dd592cc1fe02dd75bbe569dfd350969eced1f7cef0b7b0da53fc05d2dd0f898888888888604051808060200180602001868152602001858152602001848152602001838103835288818151815260200191508051906020019080838360005b838110156106bb5780820151818401526020810190506106a0565b50505050905090810190601f1680156106e85780820380516001836020036101000a031916815260200191505b50838103825287818151815260200191508051906020019080838360005b83811015610721578082015181840152602081019050610706565b50505050905090810190601f16801561074e5780820380516001836020036101000a031916815260200191505b5097505050505050505060405180910390a45050505050565b6000600154905090565b828054600181600116156101000203166002900490600052602060002090601f016020900481019282601f106107b257805160ff19168380011785556107e0565b828001600101855582156107e0579182015b828111156107df5782518255916020019190600101906107c4565b5b5090506107ed91906107f1565b5090565b61081391905b8082111561080f5760008160009055506001016107f7565b5090565b905600a165627a7a7230582090a1ca262879634e54a0f69d2f62edabbbaa674c9d608cc25722ba426cca67a80029",
  "source": "pragma solidity ^0.4.18;\n\n\ncontract Shipper_Importer {\n    struct Shipment {\n        uint shipment_id;\n        address exporter_id;\n        address shipper_id;\n        string name;\n        string description;\n        uint load_weight;\n        uint load_value;\n        uint transport_charges; //depend on load_weight    \n    }\n\n    mapping(uint => Shipment) public shipments;\n    uint shipment_counter;\n\n    event LogShipment(\n        uint indexed shipment_id,\n        address indexed exporter_id,\n        address indexed shipper_id,\n        string name,\n        string description,\n        uint load_weight,\n        uint load_value,\n        uint transport_charges\n      \n    );\n\n    function loadShipment(\n        string _name,\n        string _description,\n        uint _load_weight,\n        uint _load_value,\n        uint _transport_charges\n        \n    ) public {\n        shipment_counter++;\n\n        shipments[shipment_counter] = Shipment(\n            shipment_counter,\n            msg.sender,\n            0x0,\n            _name,\n            _description,\n            _load_weight,\n            _load_value,\n            _transport_charges\n            \n        );\n\n        emit LogShipment(\n            shipment_counter,\n            msg.sender,\n            0x0,\n            _name,\n            _description,\n            _load_weight,\n            _load_value,\n            _transport_charges\n            );\n    }\n\n    function getNumberOfShipments() public view returns (uint) {\n        return shipment_counter;\n    }\n\n}\n",
  "sourcePath": "/Users/archit/ChainSkills/SupplyChainEthereum/contracts/Shipper_Importer.sol",
  "compiler": {
    "name": "solc",
    "version": "0.4.24+commit.e67f0147.Emscripten.clang"
  },
  "schemaVersion": "2.0.1",
  "updatedAt": "2018-07-19T07:31:59.306Z"
}