{
  "contractName": "Shipper_Exporter",
  "abi": [
    {
      "constant": true,
      "inputs": [
        {
          "name": "",
          "type": "uint256"
        }
      ],
      "name": "shipments",
      "outputs": [
        {
          "name": "shipment_id",
          "type": "uint256"
        },
        {
          "name": "exporter_id",
          "type": "address"
        },
        {
          "name": "shipper_id",
          "type": "address"
        },
        {
          "name": "load_date",
          "type": "uint256"
        },
        {
          "name": "name",
          "type": "string"
        },
        {
          "name": "description",
          "type": "string"
        },
        {
          "name": "load_weight",
          "type": "uint256"
        },
        {
          "name": "load_value",
          "type": "uint256"
        }
      ],
      "payable": false,
      "stateMutability": "view",
      "type": "function"
    },
    {
      "anonymous": false,
      "inputs": [
        {
          "indexed": true,
          "name": "shipment_id",
          "type": "uint256"
        },
        {
          "indexed": true,
          "name": "exporter_id",
          "type": "address"
        },
        {
          "indexed": true,
          "name": "shipper_id",
          "type": "address"
        },
        {
          "indexed": false,
          "name": "load_date",
          "type": "uint256"
        },
        {
          "indexed": false,
          "name": "name",
          "type": "string"
        },
        {
          "indexed": false,
          "name": "description",
          "type": "string"
        },
        {
          "indexed": false,
          "name": "load_weight",
          "type": "uint256"
        },
        {
          "indexed": false,
          "name": "load_value",
          "type": "uint256"
        }
      ],
      "name": "LogShipment",
      "type": "event"
    },
    {
      "constant": false,
      "inputs": [
        {
          "name": "_name",
          "type": "string"
        },
        {
          "name": "_description",
          "type": "string"
        },
        {
          "name": "load_weight",
          "type": "uint256"
        },
        {
          "name": "load_value",
          "type": "uint256"
        }
      ],
      "name": "loadShipment",
      "outputs": [],
      "payable": false,
      "stateMutability": "nonpayable",
      "type": "function"
    },
    {
      "constant": true,
      "inputs": [],
      "name": "getNumberOfShipments",
      "outputs": [
        {
          "name": "",
          "type": "uint256"
        }
      ],
      "payable": false,
      "stateMutability": "view",
      "type": "function"
    }
  ],
  "bytecode": "0x608060405234801561001057600080fd5b5061083a806100206000396000f300608060405260043610610057576000357c0100000000000000000000000000000000000000000000000000000000900463ffffffff1680632ac08a931461005c57806334114d86146101f0578063d222016f146102b3575b600080fd5b34801561006857600080fd5b50610087600480360381019080803590602001909291905050506102de565b604051808981526020018873ffffffffffffffffffffffffffffffffffffffff1673ffffffffffffffffffffffffffffffffffffffff1681526020018773ffffffffffffffffffffffffffffffffffffffff1673ffffffffffffffffffffffffffffffffffffffff1681526020018681526020018060200180602001858152602001848152602001838103835287818151815260200191508051906020019080838360005b8381101561014757808201518184015260208101905061012c565b50505050905090810190601f1680156101745780820380516001836020036101000a031916815260200191505b50838103825286818151815260200191508051906020019080838360005b838110156101ad578082015181840152602081019050610192565b50505050905090810190601f1680156101da5780820380516001836020036101000a031916815260200191505b509a505050505050505050505060405180910390f35b3480156101fc57600080fd5b506102b1600480360381019080803590602001908201803590602001908080601f0160208091040260200160405190810160405280939291908181526020018383808284378201915050505050509192919290803590602001908201803590602001908080601f01602080910402602001604051908101604052809392919081815260200183838082843782019150505050505091929192908035906020019092919080359060200190929190505050610496565b005b3480156102bf57600080fd5b506102c861075f565b6040518082815260200191505060405180910390f35b60016020528060005260406000206000915090508060000154908060010160009054906101000a900473ffffffffffffffffffffffffffffffffffffffff16908060020160009054906101000a900473ffffffffffffffffffffffffffffffffffffffff1690806003015490806004018054600181600116156101000203166002900480601f0160208091040260200160405190810160405280929190818152602001828054600181600116156101000203166002900480156103e25780601f106103b7576101008083540402835291602001916103e2565b820191906000526020600020905b8154815290600101906020018083116103c557829003601f168201915b505050505090806005018054600181600116156101000203166002900480601f0160208091040260200160405190810160405280929190818152602001828054600181600116156101000203166002900480156104805780601f1061045557610100808354040283529160200191610480565b820191906000526020600020905b81548152906001019060200180831161046357829003601f168201915b5050505050908060060154908060070154905088565b600043600281905550429050826000819055506101006040519081016040528060025481526020013373ffffffffffffffffffffffffffffffffffffffff168152602001600073ffffffffffffffffffffffffffffffffffffffff168152602001828152602001868152602001858152602001848152602001838152506001600060025481526020019081526020016000206000820151816000015560208201518160010160006101000a81548173ffffffffffffffffffffffffffffffffffffffff021916908373ffffffffffffffffffffffffffffffffffffffff16021790555060408201518160020160006101000a81548173ffffffffffffffffffffffffffffffffffffffff021916908373ffffffffffffffffffffffffffffffffffffffff1602179055506060820151816003015560808201518160040190805190602001906105e6929190610769565b5060a0820151816005019080519060200190610603929190610769565b5060c0820151816006015560e0820151816007015590505060003373ffffffffffffffffffffffffffffffffffffffff166002547f11cb678c7cb2de42d2e9cb0a2a6fbf18d6144d279221b2bef2fcdba16760c4b38489898989604051808681526020018060200180602001858152602001848152602001838103835287818151815260200191508051906020019080838360005b838110156106b3578082015181840152602081019050610698565b50505050905090810190601f1680156106e05780820380516001836020036101000a031916815260200191505b50838103825286818151815260200191508051906020019080838360005b838110156107195780820151818401526020810190506106fe565b50505050905090810190601f1680156107465780820380516001836020036101000a031916815260200191505b5097505050505050505060405180910390a45050505050565b6000600254905090565b828054600181600116156101000203166002900490600052602060002090601f016020900481019282601f106107aa57805160ff19168380011785556107d8565b828001600101855582156107d8579182015b828111156107d75782518255916020019190600101906107bc565b5b5090506107e591906107e9565b5090565b61080b91905b808211156108075760008160009055506001016107ef565b5090565b905600a165627a7a72305820a9fc02b5f896f4d8c6654d27e8709b89ebd7a99757efcdb655bd6a23467af6c20029",
  "source": "pragma solidity ^0.4.18;\n\n\ncontract Shipper_Exporter {\n\n    struct Shipment {\n        uint shipment_id;\n        address exporter_id;\n        address shipper_id;\n        uint load_date;\n        string name;\n        string description;\n        uint load_weight;\n        uint load_value;\n    }\n    \n    uint loadWeight;\n\n    mapping(uint => Shipment) public shipments;\n    uint shipment_counter;\n\n    event LogShipment(\n        uint indexed shipment_id,\n        address indexed exporter_id,\n        address indexed shipper_id,\n        uint load_date,\n        string name,\n        string description,\n        uint load_weight,\n        uint load_value\n    );\n\n    function loadShipment(\n        string _name,\n        string _description,\n        uint load_weight,\n        uint load_value\n    ) public {\n        shipment_counter = block.number;\n        uint load_date = block.timestamp;\n        loadWeight = load_weight;\n        shipments[shipment_counter] = Shipment(\n            shipment_counter,\n            msg.sender,\n            0x0,\n            load_date,\n            _name,\n            _description,\n            load_weight,\n            load_value\n\n        );\n\n        emit LogShipment(\n            shipment_counter,\n            msg.sender,\n            0x0,\n            load_date,\n            _name,\n            _description,\n            load_weight,\n            load_value\n        );\n    }\n\n    function getNumberOfShipments() public view returns (uint) {\n        return shipment_counter;\n    }\n}\n",
  "sourcePath": "/home/arpit/ChainSkills/supplyChainEthereum/contracts/Shipper_Exporter.sol",
  "compiler": {
    "name": "solc",
    "version": "0.4.24+commit.e67f0147.Emscripten.clang"
  },
  "schemaVersion": "2.0.1",
  "updatedAt": "2018-07-25T05:57:46.075Z"
}