{
  "contractName": "Shipper_Importer",
  "abi": [
    {
      "constant": true,
      "inputs": [
        {
          "name": "",
          "type": "uint256"
        }
      ],
      "name": "shipments",
      "outputs": [
        {
          "name": "shipment_id",
          "type": "uint256"
        },
        {
          "name": "importer",
          "type": "address"
        },
        {
          "name": "shipper",
          "type": "address"
        },
        {
          "name": "name",
          "type": "string"
        },
        {
          "name": "description",
          "type": "string"
        },
        {
          "name": "unload_weight",
          "type": "uint256"
        },
        {
          "name": "load_value",
          "type": "uint256"
        },
        {
          "name": "transport_charges",
          "type": "uint256"
        },
        {
          "name": "miscellaneous_charges",
          "type": "uint256"
        }
      ],
      "payable": false,
      "stateMutability": "view",
      "type": "function"
    },
    {
      "anonymous": false,
      "inputs": [
        {
          "indexed": true,
          "name": "shipment_id",
          "type": "uint256"
        },
        {
          "indexed": true,
          "name": "importer",
          "type": "address"
        },
        {
          "indexed": true,
          "name": "shipper",
          "type": "address"
        },
        {
          "indexed": false,
          "name": "payment",
          "type": "uint256"
        }
      ],
      "name": "unloadLogShipment",
      "type": "event"
    },
    {
      "constant": false,
      "inputs": [],
      "name": "getAdrress",
      "outputs": [
        {
          "name": "",
          "type": "address"
        }
      ],
      "payable": false,
      "stateMutability": "nonpayable",
      "type": "function"
    },
    {
      "constant": false,
      "inputs": [
        {
          "name": "shipment_id",
          "type": "uint256"
        },
        {
          "name": "unload_weight",
          "type": "uint256"
        },
        {
          "name": "load_date",
          "type": "uint256"
        }
      ],
      "name": "ShipmentDelivered",
      "outputs": [
        {
          "name": "",
          "type": "uint256"
        }
      ],
      "payable": false,
      "stateMutability": "nonpayable",
      "type": "function"
    },
    {
      "constant": false,
      "inputs": [
        {
          "name": "exporter",
          "type": "address"
        }
      ],
      "name": "transferFunds",
      "outputs": [],
      "payable": true,
      "stateMutability": "payable",
      "type": "function"
    }
  ],
  "bytecode": "0x608060405234801561001057600080fd5b506106bc806100206000396000f300608060405260043610610062576000357c0100000000000000000000000000000000000000000000000000000000900463ffffffff1680631868f87914610067578063188ff6f1146100bc5780632ac08a9314610113578063e39ff19f146102ae575b600080fd5b34801561007357600080fd5b506100a66004803603810190808035906020019092919080359060200190929190803590602001909291905050506102e4565b6040518082815260200191505060405180910390f35b3480156100c857600080fd5b506100d1610457565b604051808273ffffffffffffffffffffffffffffffffffffffff1673ffffffffffffffffffffffffffffffffffffffff16815260200191505060405180910390f35b34801561011f57600080fd5b5061013e6004803603810190808035906020019092919050505061045f565b604051808a81526020018973ffffffffffffffffffffffffffffffffffffffff1673ffffffffffffffffffffffffffffffffffffffff1681526020018873ffffffffffffffffffffffffffffffffffffffff1673ffffffffffffffffffffffffffffffffffffffff1681526020018060200180602001878152602001868152602001858152602001848152602001838103835289818151815260200191508051906020019080838360005b838110156102045780820151818401526020810190506101e9565b50505050905090810190601f1680156102315780820380516001836020036101000a031916815260200191505b50838103825288818151815260200191508051906020019080838360005b8381101561026a57808201518184015260208101905061024f565b50505050905090810190601f1680156102975780820380516001836020036101000a031916815260200191505b509b50505050505050505050505060405180910390f35b6102e2600480360381019080803573ffffffffffffffffffffffffffffffffffffffff16906020019092919050505061061d565b005b60008060008060004292506018603c8088860381151561030057fe5b0481151561030a57fe5b0481151561031457fe5b0491506018601e83030290506014600081905550601e821115801561033857508387145b1561035257600080600082825401925050819055506103f4565b601e6002541115801561036457508387105b15610386576103738488610669565b60008082825401925050819055506103f3565b601e60025411801561039757508387145b156103b8576103a58161067e565b60008082825401925050819055506103f2565b601e6002541180156103c957508387105b156103f1576103d88488610669565b6103e18261067e565b0160008082825401925050819055505b5b5b5b60003373ffffffffffffffffffffffffffffffffffffffff16897f02df45f300daf2dc56983bf49d61e6838cd807820d0608c81c023a035b1a5fb76000546040518082815260200191505060405180910390a46000549450505050509392505050565b600033905090565b60016020528060005260406000206000915090508060000154908060010160009054906101000a900473ffffffffffffffffffffffffffffffffffffffff16908060020160009054906101000a900473ffffffffffffffffffffffffffffffffffffffff1690806003018054600181600116156101000203166002900480601f01602080910402602001604051908101604052809291908181526020018280546001816001161561010002031660029004801561055d5780601f106105325761010080835404028352916020019161055d565b820191906000526020600020905b81548152906001019060200180831161054057829003601f168201915b505050505090806004018054600181600116156101000203166002900480601f0160208091040260200160405190810160405280929190818152602001828054600181600116156101000203166002900480156105fb5780601f106105d0576101008083540402835291602001916105fb565b820191906000526020600020905b8154815290600101906020018083116105de57829003601f168201915b5050505050908060050154908060060154908060070154908060080154905089565b8073ffffffffffffffffffffffffffffffffffffffff166108fc6000549081150290604051600060405180830381858888f19350505050158015610665573d6000803e3d6000fd5b5050565b60008060058385030290508091505092915050565b600080600283029050809150509190505600a165627a7a72305820d38a3a002ece2920aa0195b32af9615646de86277800687f692777aa0fc5b2560029",
  "source": "pragma solidity ^0.4.18;\n\nimport \"./Shipper_Exporter.sol\";\n\ncontract Shipper_Importer {\n    struct Shipment {\n        uint shipment_id;\n        address importer;\n        address shipper;\n        string name;\n        string description;\n        uint unload_weight;\n        uint load_value;\n        uint transport_charges; //depend on unload_weight  \n        uint miscellaneous_charges;\n    }\n\n    uint constant transport_charges = 20;\n    uint payment;\n    mapping(uint => Shipment) public shipments;\n    uint shipment_counter;\n\n    event unloadLogShipment(\n        uint indexed shipment_id,\n        address indexed importer,\n        address indexed shipper,\n        uint payment\n    );\n\n    function getAdrress() public returns (address)  {\n        return msg.sender;\n    }\n\n    function shipmentDamages(\n        uint load_weight,\n        uint unload_weight\n    ) private returns (uint){\n        //damages of 2$ per gallon shipper must pay in case of damages\n        uint damages_price = (load_weight - unload_weight) * 5;\n        return damages_price;\n    }\n\n    function demurrageClaim(\n        uint time_hours\n    ) private returns (\n        uint\n    ){\n        uint demurrage_cost = time_hours * 2;\n        //0.2 ether\n        return demurrage_cost;\n    }\n\n    function ShipmentDelivered(\n        uint shipment_id,\n        uint unload_weight,\n        uint load_date\n    ) public returns (\n        uint\n    ) {\n        uint load_weight;\n        //pulled through web3\n        uint unload_date = block.timestamp;\n        uint time_days = (unload_date - load_date) / 60 / 60 / 24;\n        //  emit unloadLogShipment//  emit unloadLogShipment(\n        uint time_exceeded_hours = (time_days - 30) * 24;\n        payment = transport_charges;\n        //if load delivered within 30 days of signing receipt full payment to be made provided no damages.\n        if (time_days <= 30 && unload_weight == load_weight) {\n            payment += 0;\n        }\n        //else if within 30 days but some damages then percentage adjusted according to damages\n        else if (shipment_counter <= 30 && unload_weight < load_weight) {\n            payment += shipmentDamages(load_weight, unload_weight);\n        }\n        //else if  30 days exceeded exporter must pay demurrage according to mutually agreed percentage\n        else if (shipment_counter > 30 && unload_weight == load_weight) {\n            payment += demurrageClaim(time_exceeded_hours);\n        }\n        //else if 30 days limit exceeded and also other damages then further damages + demurrage applicable\n        else if (shipment_counter > 30 && unload_weight < load_weight) {\n            payment += demurrageClaim(time_exceeded_hours) + shipmentDamages(load_weight, unload_weight);\n        }\n\n        emit unloadLogShipment(\n            shipment_id,\n            msg.sender,\n            0x0,\n            payment\n        );\n        return payment;\n    }\n\n    function transferFunds(address exporter) public payable{\n        address(exporter).transfer(payment);\n    }\n}",
  "sourcePath": "/home/arpit/ChainSkills/supplyChainEthereum/contracts/Shipper_Importer.sol",
  "compiler": {
    "name": "solc",
    "version": "0.4.24+commit.e67f0147.Emscripten.clang"
  },
  "schemaVersion": "2.0.1",
  "updatedAt": "2018-07-25T09:54:40.581Z"
}