{
  "contractName": "Shipper_Importer",
  "abi": [
    {
      "constant": true,
      "inputs": [
        {
          "name": "",
          "type": "uint256"
        }
      ],
      "name": "shipments",
      "outputs": [
        {
          "name": "shipment_id",
          "type": "uint256"
        },
        {
          "name": "importer_id",
          "type": "address"
        },
        {
          "name": "shipper_id",
          "type": "address"
        },
        {
          "name": "name",
          "type": "string"
        },
        {
          "name": "description",
          "type": "string"
        },
        {
          "name": "unload_weight",
          "type": "uint256"
        },
        {
          "name": "load_value",
          "type": "uint256"
        },
        {
          "name": "transport_charges",
          "type": "uint256"
        }
      ],
      "payable": false,
      "stateMutability": "view",
      "type": "function"
    },
    {
      "anonymous": false,
      "inputs": [
        {
          "indexed": true,
          "name": "shipment_id",
          "type": "uint256"
        },
        {
          "indexed": true,
          "name": "importer_id",
          "type": "address"
        },
        {
          "indexed": true,
          "name": "shipper_id",
          "type": "address"
        },
        {
          "indexed": false,
          "name": "name",
          "type": "string"
        },
        {
          "indexed": false,
          "name": "description",
          "type": "string"
        },
        {
          "indexed": false,
          "name": "unload_weight",
          "type": "uint256"
        },
        {
          "indexed": false,
          "name": "load_value",
          "type": "uint256"
        },
        {
          "indexed": false,
          "name": "transport_charges",
          "type": "uint256"
        }
      ],
      "name": "unloadLogShipment",
      "type": "event"
    },
    {
      "constant": false,
      "inputs": [
        {
          "name": "_load_weight",
          "type": "uint256"
        },
        {
          "name": "_unload_weight",
          "type": "uint256"
        }
      ],
      "name": "shipmentDamages",
      "outputs": [
        {
          "name": "",
          "type": "uint256"
        }
      ],
      "payable": false,
      "stateMutability": "nonpayable",
      "type": "function"
    },
    {
      "constant": false,
      "inputs": [
        {
          "name": "time_hours",
          "type": "uint256"
        }
      ],
      "name": "demurrageClaim",
      "outputs": [
        {
          "name": "",
          "type": "uint256"
        }
      ],
      "payable": false,
      "stateMutability": "nonpayable",
      "type": "function"
    },
    {
      "constant": false,
      "inputs": [
        {
          "name": "load_weight",
          "type": "uint256"
        },
        {
          "name": "unload_weight",
          "type": "uint256"
        },
        {
          "name": "_transport_charges",
          "type": "uint256"
        }
      ],
      "name": "ShipmentDelivery",
      "outputs": [],
      "payable": false,
      "stateMutability": "nonpayable",
      "type": "function"
    }
  ],
  "bytecode": "0x608060405234801561001057600080fd5b506105c1806100206000396000f300608060405260043610610062576000357c0100000000000000000000000000000000000000000000000000000000900463ffffffff1680632ac08a9314610067578063a5dffaa6146101fb578063cd3b47f21461023c578063f1754a1214610287575b600080fd5b34801561007357600080fd5b50610092600480360381019080803590602001909291905050506102c8565b604051808981526020018873ffffffffffffffffffffffffffffffffffffffff1673ffffffffffffffffffffffffffffffffffffffff1681526020018773ffffffffffffffffffffffffffffffffffffffff1673ffffffffffffffffffffffffffffffffffffffff1681526020018060200180602001868152602001858152602001848152602001838103835288818151815260200191508051906020019080838360005b83811015610152578082015181840152602081019050610137565b50505050905090810190601f16801561017f5780820380516001836020036101000a031916815260200191505b50838103825287818151815260200191508051906020019080838360005b838110156101b857808201518184015260208101905061019d565b50505050905090810190601f1680156101e55780820380516001836020036101000a031916815260200191505b509a505050505050505050505060405180910390f35b34801561020757600080fd5b5061023a600480360381019080803590602001909291908035906020019092919080359060200190929190505050610480565b005b34801561024857600080fd5b50610271600480360381019080803590602001909291908035906020019092919050505061056e565b6040518082815260200191505060405180910390f35b34801561029357600080fd5b506102b260048036038101908080359060200190929190505050610583565b6040518082815260200191505060405180910390f35b60006020528060005260406000206000915090508060000154908060010160009054906101000a900473ffffffffffffffffffffffffffffffffffffffff16908060020160009054906101000a900473ffffffffffffffffffffffffffffffffffffffff1690806003018054600181600116156101000203166002900480601f0160208091040260200160405190810160405280929190818152602001828054600181600116156101000203166002900480156103c65780601f1061039b576101008083540402835291602001916103c6565b820191906000526020600020905b8154815290600101906020018083116103a957829003601f168201915b505050505090806004018054600181600116156101000203166002900480601f0160208091040260200160405190810160405280929190818152602001828054600181600116156101000203166002900480156104645780601f1061043957610100808354040283529160200191610464565b820191906000526020600020905b81548152906001019060200180831161044757829003601f168201915b5050505050908060050154908060060154908060070154905088565b60008060008060004294506018603c8086880381151561049c57fe5b048115156104a657fe5b048115156104b057fe5b0492506018601e840302915060649050601e83111580156104d057508787145b156104e057600081019050610564565b601e600154111580156104f257508787105b1561050a57610501888861056e565b81019050610563565b601e60015411801561051b57508787145b156105325761052982610583565b81019050610562565b601e60015411801561054357508787105b1561056157610552888861056e565b61055b83610583565b01810190505b5b5b5b5050505050505050565b60008060058385030290508091505092915050565b600080600283029050809150509190505600a165627a7a72305820dcd4be7d6e817ee13fc2d476f3add8e8beeda8b5c3a6f8cecdf17ca20d165a160029",
  "source": "pragma solidity ^0.4.18;\n\n\ncontract Shipper_Importer {\n    struct Shipment {\n        uint shipment_id;\n        address importer_id;\n        address shipper_id;\n        string name;\n        string description;\n        uint unload_weight;\n        uint load_value;\n        uint transport_charges; //depend on unload_weight    \n    }\n    uint constant transport_charges = 100;\n\n    mapping(uint => Shipment) public shipments;\n    uint shipment_counter;\n\n    event unloadLogShipment(\n        uint indexed shipment_id,\n        address indexed importer_id,\n        address indexed shipper_id,\n        string name,\n        string description,\n        uint unload_weight,\n        uint load_value,\n        uint transport_charges\n      \n    );\n\n    // function unloadShipment(\n        \n    //     uint _unload_weight,\n    //     uint _load_value,\n    //     uint _transport_charges\n        \n    // ) public {\n       \n    //     emit LogShipment(\n    //         shipment_counter,\n    //         msg.sender,\n    //         0x0,\n    //         _name,\n    //         _description,\n    //         _unload_weight,\n    //         _load_value,\n    //         _transport_charges\n    //         );\n    // }\n\n\n//}\n function shipmentDamages(\n        uint _load_weight,\n        uint _unload_weight\n    ) public returns (uint){\n        //damages of 2$ per gallon shipper must pay in case of damages\n        uint damages_price = (_load_weight - _unload_weight) * 5;\n        return  damages_price;\n    }\n\n    function demurrageClaim(\n        uint time_hours\n    ) public returns ( \n        uint\n    ){\n        uint demurrage_cost = time_hours * 2;    //0.2 ether\n        return demurrage_cost;\n    }\n\nfunction ShipmentDelivery(\n          uint load_weight,\n          uint unload_weight,\n          uint _transport_charges\n    ) public {\n         uint unload_date = block.timestamp;\n         uint load_date;\n         uint time_days = (unload_date - load_date) / 60 / 60 / 24;\n         uint time_exceeded_hours = (time_days - 30) * 24; \n         uint payment = transport_charges;\n        //if load delivered within 30 days of signing receipt full payment to be made provided no damages.\n         if(time_days <= 30 && unload_weight == load_weight){\n            payment += 0;\n         }\n        //else if within 30 days but some damages then percentage adjusted according to damages\n         else if(shipment_counter <= 30 && unload_weight < load_weight ){\n            payment += shipmentDamages(load_weight, unload_weight);\n         }\n        \n        //else if  30 days exceeded exporter must pay demurrage according to mutually agreed percentage\n         else if(shipment_counter > 30 && unload_weight == load_weight ){\n            payment += demurrageClaim(time_exceeded_hours);\n         }\n        //else if 30 days limit exceeded and also other damages then further damages + demurrage applicable\n         else if(shipment_counter > 30 && unload_weight < load_weight ){\n            payment += demurrageClaim(time_exceeded_hours) + shipmentDamages(load_weight, unload_weight);\n         }\n        //  emit unloadLogShipment(\n        //     msg.sender,\n        //     0x0,\n        //     _name,\n        //     _description,\n        //     unload_weight,\n        //     _load_value,\n        //     _transport_charges\n        // );\n    }\n}",
  "sourcePath": "/Users/archit/ChainSkills/SupplyChainEthereum/contracts/Shipper_Importer.sol",
  "compiler": {
    "name": "solc",
    "version": "0.4.24+commit.e67f0147.Emscripten.clang"
  },
  "schemaVersion": "2.0.1",
  "updatedAt": "2018-07-19T10:04:35.473Z"
}