{
  "contractName": "Shipper_Exporter",
  "abi": [
    {
      "constant": true,
      "inputs": [
        {
          "name": "",
          "type": "uint256"
        }
      ],
      "name": "shipments",
      "outputs": [
        {
          "name": "shipment_id",
          "type": "uint256"
        },
        {
          "name": "exporter_id",
          "type": "address"
        },
        {
          "name": "shipper_id",
          "type": "address"
        },
        {
          "name": "load_date",
          "type": "uint256"
        },
        {
          "name": "name",
          "type": "string"
        },
        {
          "name": "description",
          "type": "string"
        },
        {
          "name": "load_weight",
          "type": "uint256"
        },
        {
          "name": "load_value",
          "type": "uint256"
        }
      ],
      "payable": false,
      "stateMutability": "view",
      "type": "function"
    },
    {
      "constant": true,
      "inputs": [],
      "name": "balance",
      "outputs": [
        {
          "name": "",
          "type": "uint256"
        }
      ],
      "payable": false,
      "stateMutability": "view",
      "type": "function"
    },
    {
      "payable": true,
      "stateMutability": "payable",
      "type": "fallback"
    },
    {
      "anonymous": false,
      "inputs": [
        {
          "indexed": true,
          "name": "shipment_id",
          "type": "uint256"
        },
        {
          "indexed": true,
          "name": "exporter_id",
          "type": "address"
        },
        {
          "indexed": true,
          "name": "shipper_id",
          "type": "address"
        },
        {
          "indexed": false,
          "name": "load_date",
          "type": "uint256"
        },
        {
          "indexed": false,
          "name": "name",
          "type": "string"
        },
        {
          "indexed": false,
          "name": "description",
          "type": "string"
        },
        {
          "indexed": false,
          "name": "load_weight",
          "type": "uint256"
        },
        {
          "indexed": false,
          "name": "load_value",
          "type": "uint256"
        }
      ],
      "name": "LogShipment",
      "type": "event"
    },
    {
      "anonymous": false,
      "inputs": [
        {
          "indexed": false,
          "name": "value",
          "type": "uint256"
        }
      ],
      "name": "recieve",
      "type": "event"
    },
    {
      "constant": false,
      "inputs": [],
      "name": "getAddress",
      "outputs": [
        {
          "name": "",
          "type": "address"
        }
      ],
      "payable": false,
      "stateMutability": "nonpayable",
      "type": "function"
    },
    {
      "constant": false,
      "inputs": [
        {
          "name": "_name",
          "type": "string"
        },
        {
          "name": "_description",
          "type": "string"
        },
        {
          "name": "load_weight",
          "type": "uint256"
        },
        {
          "name": "load_value",
          "type": "uint256"
        }
      ],
      "name": "loadShipment",
      "outputs": [],
      "payable": false,
      "stateMutability": "nonpayable",
      "type": "function"
    },
    {
      "constant": true,
      "inputs": [],
      "name": "getNumberOfShipments",
      "outputs": [
        {
          "name": "",
          "type": "uint256"
        }
      ],
      "payable": false,
      "stateMutability": "view",
      "type": "function"
    }
  ],
  "bytecode": "0x6080604052600060035534801561001557600080fd5b50610914806100256000396000f30060806040526004361061006d576000357c0100000000000000000000000000000000000000000000000000000000900463ffffffff1680632ac08a93146100a657806334114d861461023a57806338cc4831146102fd578063b69ef8a814610354578063d222016f1461037f575b7f0d5419ba90f9b38f7355b16a05edd75091f7acc384ae03d37ef32772ef23fbde346040518082815260200191505060405180910390a1005b3480156100b257600080fd5b506100d1600480360381019080803590602001909291905050506103aa565b604051808981526020018873ffffffffffffffffffffffffffffffffffffffff1673ffffffffffffffffffffffffffffffffffffffff1681526020018773ffffffffffffffffffffffffffffffffffffffff1673ffffffffffffffffffffffffffffffffffffffff1681526020018681526020018060200180602001858152602001848152602001838103835287818151815260200191508051906020019080838360005b83811015610191578082015181840152602081019050610176565b50505050905090810190601f1680156101be5780820380516001836020036101000a031916815260200191505b50838103825286818151815260200191508051906020019080838360005b838110156101f75780820151818401526020810190506101dc565b50505050905090810190601f1680156102245780820380516001836020036101000a031916815260200191505b509a505050505050505050505060405180910390f35b34801561024657600080fd5b506102fb600480360381019080803590602001908201803590602001908080601f0160208091040260200160405190810160405280939291908181526020018383808284378201915050505050509192919290803590602001908201803590602001908080601f01602080910402602001604051908101604052809392919081815260200183838082843782019150505050505091929192908035906020019092919080359060200190929190505050610562565b005b34801561030957600080fd5b5061031261082b565b604051808273ffffffffffffffffffffffffffffffffffffffff1673ffffffffffffffffffffffffffffffffffffffff16815260200191505060405180910390f35b34801561036057600080fd5b50610369610833565b6040518082815260200191505060405180910390f35b34801561038b57600080fd5b50610394610839565b6040518082815260200191505060405180910390f35b60016020528060005260406000206000915090508060000154908060010160009054906101000a900473ffffffffffffffffffffffffffffffffffffffff16908060020160009054906101000a900473ffffffffffffffffffffffffffffffffffffffff1690806003015490806004018054600181600116156101000203166002900480601f0160208091040260200160405190810160405280929190818152602001828054600181600116156101000203166002900480156104ae5780601f10610483576101008083540402835291602001916104ae565b820191906000526020600020905b81548152906001019060200180831161049157829003601f168201915b505050505090806005018054600181600116156101000203166002900480601f01602080910402602001604051908101604052809291908181526020018280546001816001161561010002031660029004801561054c5780601f106105215761010080835404028352916020019161054c565b820191906000526020600020905b81548152906001019060200180831161052f57829003601f168201915b5050505050908060060154908060070154905088565b600043600281905550429050826000819055506101006040519081016040528060025481526020013373ffffffffffffffffffffffffffffffffffffffff168152602001600073ffffffffffffffffffffffffffffffffffffffff168152602001828152602001868152602001858152602001848152602001838152506001600060025481526020019081526020016000206000820151816000015560208201518160010160006101000a81548173ffffffffffffffffffffffffffffffffffffffff021916908373ffffffffffffffffffffffffffffffffffffffff16021790555060408201518160020160006101000a81548173ffffffffffffffffffffffffffffffffffffffff021916908373ffffffffffffffffffffffffffffffffffffffff1602179055506060820151816003015560808201518160040190805190602001906106b2929190610843565b5060a08201518160050190805190602001906106cf929190610843565b5060c0820151816006015560e0820151816007015590505060003373ffffffffffffffffffffffffffffffffffffffff166002547f11cb678c7cb2de42d2e9cb0a2a6fbf18d6144d279221b2bef2fcdba16760c4b38489898989604051808681526020018060200180602001858152602001848152602001838103835287818151815260200191508051906020019080838360005b8381101561077f578082015181840152602081019050610764565b50505050905090810190601f1680156107ac5780820380516001836020036101000a031916815260200191505b50838103825286818151815260200191508051906020019080838360005b838110156107e55780820151818401526020810190506107ca565b50505050905090810190601f1680156108125780820380516001836020036101000a031916815260200191505b5097505050505050505060405180910390a45050505050565b600033905090565b60035481565b6000600254905090565b828054600181600116156101000203166002900490600052602060002090601f016020900481019282601f1061088457805160ff19168380011785556108b2565b828001600101855582156108b2579182015b828111156108b1578251825591602001919060010190610896565b5b5090506108bf91906108c3565b5090565b6108e591905b808211156108e15760008160009055506001016108c9565b5090565b905600a165627a7a723058206c8b5d6f83e3cb6e9075f7c79c133b6732d5dabce818e550e56e536458cbbc360029",
  "source": "pragma solidity ^0.4.18;\n\n\ncontract Shipper_Exporter {\n\n    struct Shipment {\n        uint shipment_id;\n        address exporter_id;\n        address shipper_id;\n        uint load_date;\n        string name;\n        string description;\n        uint load_weight;\n        uint load_value;\n    }\n\n    uint loadWeight;\n\n    mapping(uint => Shipment) public shipments;\n    uint shipment_counter;\n\n    event LogShipment(\n        uint indexed shipment_id,\n        address indexed exporter_id,\n        address indexed shipper_id,\n        uint load_date,\n        string name,\n        string description,\n        uint load_weight,\n        uint load_value\n    );\n\n    function getAddress() public returns (address)  {\n        return msg.sender;\n    }\n\n    function loadShipment(\n        string _name,\n        string _description,\n        uint load_weight,\n        uint load_value\n    ) public {\n        shipment_counter = block.number;\n        uint load_date = block.timestamp;\n        loadWeight = load_weight;\n        shipments[shipment_counter] = Shipment(\n            shipment_counter,\n            msg.sender,\n            0x0,\n            load_date,\n            _name,\n            _description,\n            load_weight,\n            load_value\n\n        );\n\n        emit LogShipment(\n            shipment_counter,\n            msg.sender,\n            0x0,\n            load_date,\n            _name,\n            _description,\n            load_weight,\n            load_value\n        );\n    }\n   \n    uint public balance = 0;\n    event recieve(uint value);\n    \n    function () private payable{\n        emit recieve(msg.value);\n    }\n\n    function getNumberOfShipments() public view returns (uint) {\n        return shipment_counter;\n    }\n}\n",
  "sourcePath": "/home/arpit/ChainSkills/supplyChainEthereum/contracts/Shipper_Exporter.sol",
  "compiler": {
    "name": "solc",
    "version": "0.4.24+commit.e67f0147.Emscripten.clang"
  },
  "schemaVersion": "2.0.1",
  "updatedAt": "2018-07-25T09:54:40.575Z"
}